:10000300535443313546324B363053320D0A556122
:0C0013007274205465737420210D0A00E3
:10002600E4F594F593F592F591F596F595F5B2F517
:10003600B1F5B4F5B3F5CAF5C9F5CCF5CBF5E2F5EE
:10004600E1E5A2543FF5A27598DA75D7E875D6FFB3
:10005600758E14438E01D2ACD2AF7BFF7A00790342
:0500660012006B80FE9A
:030023000200A92F
:1000A900C0D0309809C298859980A29A92A23099B5
:0800B90004C299C200D0D0324C
:1000C1002000FDEF30D004D29B8002C29BD200F50C
:0200D100992272
:10006B008B088A09890AAB08AA09A90A12009060B1
:10007B0013050AE50A7002050914F9120090FF1224
:05008B0000C180E2222B
:030000000200D328
:0C00D300787FE4F6D8FD7581200200263D
:10009000BB010689828A83E0225002E722BBFE026E
:0900A000E32289828A83E49322A1
:00000001FF
