:10030400424C4443205465737420210D0A005469FF
:100314006D65204F7574210D0A0053746F70204D64
:080324006F746F72210D0A00D5
:070351007FFA1203587FFA46
:0F0358007D367C07ED1D70011C144C70F7DFF132
:010367002273
:100368000000000000000000000000000000000085
:0703780000000000DFEA2293
:1000AE00E50A14603B14605A146078147003020160
:1000BE005214700302017524056003020197C2B643
:1000CE00C2CD53F2FDE4F5FA53F3FDF5FB53F4FD07
:1000DE00F5FC53F2FD850CFAD2B375BCED0201713D
:1000EE00C2B6C2B353F2FDE4F5FA53F3FDF5FB537A
:1000FE00F4FDF5FC53F2FD850CFAD2CD75BCEC0285
:10010E000194C2B6C2B353F2FDE4F5FA53F3FDF512
:10011E00FB53F4FDF5FC53F3FD850CFBD2CD75BC02
:10012E00EB8040C2B3C2CD53F2FDE4F5FA53F3FDBA
:10013E00F5FB53F4FDF5FC53F3FD850CFBD2B675C0
:10014E00BCED8042C2B3C2CD53F2FDE4F5FA53F3D7
:10015E00FDF5FB53F4FDF5FC53F4FD850CFCD2B616
:10016E0075BCEC75E69C22C2B6C2CD53F2FDE4F529
:10017E00FA53F3FDF5FB53F4FDF5FC53F4FD850C3A
:0A018E00FCD2B375BCEB75E6AC22A1
:1002BD00C2B6C2B3C2CD53B1B743B24853C9DF437F
:1002CD00CA2075D90AE4F5E9F5F9F5F2F5FAF5EA7A
:1002DD0075DA42F5F3F5FBF5EB75DB42F5F4F5FC5C
:1002ED00F5EC75DC4253F2FDF5FA53F3FDF5FB53D6
:0702FD00F4FDF5FCD2DE2246
:0A03B6004391385392C7759D382219
:0300AB000200034D
:10000300C0E0C0D053E6BFE50AC394055004050A17
:100013008003750A001200AE750B0AD0D0D0E0320F
:0D00970075E68C75E73C43C91053CAEF2293
:1000260053E6BF750C1EE4F50A1200AE7F051203F7
:10003600587B2C7A01E4FDFCC3ED9BEC9A500C7FB7
:10004600321203680DBD00010C80ED7C007D0FAF00
:1000560003AE02120268EF2401FFE43EFEC3EB9FEB
:10006600FBEA9EFAC3EB9419EA9400501153E6BFDB
:10007600D200E4F50C750B0A43E6407F0122E50A3F
:10008600C394055004050A8003E4F50A1200AE8005
:01009600A4C5
:10039500759850438E01438E0475D78F75D6FD43EE
:0503A5008E10D2AC2215
:0300230002037F56
:10037F00C2AC309807859909C298D201309904C24E
:06038F0099C202D2AC325B
:0903C0002002FDEFD202F59922A2
:10032C008B108A118912AB10AA11A91212024F60FC
:10033C00130512E5127002051114F912024FFF1287
:05034C0003C080E22265
:100198001202BD1203B6120097120395C289E4F544
:1001A80009F508F50FF50BD2AF7BFF7A0379041236
:1001B800032C7F01120358E50BD394004030150B34
:1001C800E50B702A53E6BFF5FAF5FBF5FCC2B6C29B
:1001D800B3C2CDF509F50CC201C200F50FF50B7BD2
:1001E800FF7A03791212032C1203511203513001C2
:1001F80002C20120000AE509C3941E40031200262A
:100208000508E508C3940A40A9E4F5083000A3E509
:100218000C95095002050CE50CD395094002150C04
:10022800E50CC39414508BE4F50CC200F5FAF5FB09
:10023800F5FCC2B6C2B3C2CD53E6BF7BFF7A0379E1
:070248001E12032C0201BA93
:030000000203AA4E
:0C03AA00787FE4F6D8FD758120020198F0
:10024F00BB010689828A83E0225002E722BBFE02AD
:09025F00E32289828A83E49322E0
:10026800BC000BBE0029EF8DF084FFADF022E4CC7A
:10027800F875F008EF2FFFEE33FEEC33FCEE9DEC43
:10028800984005FCEE9DFE0FD5F0E9E4CEFD22ED89
:10029800F8F5F0EE8420D21CFEADF075F008EF2FD3
:1002A800FFED33FD4007985006D5F0F222C398FDC4
:0502B8000FD5F0EA2261
:00000001FF
