:07032A007FFA1203317FFA94
:0F0331007D367C07ED1D70011C144C70F7DFF159
:01034000229A
:1003410000000000000000000000000000000000AC
:0703510000000000DFEA22BA
:10000E00E50A1460231460331460431460531460C3
:10001E006524057075C2B6C2CD850CFAE4F5FBF504
:10002E00FCD2B375BCED804AC2B6C2B3850CFAE4FD
:10003E00F5FBF5FCD2CD75BCEC804CC2B6C2B3E478
:10004E00F5FAF5FC850CFBD2CD75BCEB8024C2B362
:10005E00C2CDE4F5FAF5FC850CFBD2B675BCED808D
:10006E0026C2B3C2CDE4F5FAF5FB850CFCD2B6750B
:10007E00BCEC75E69C22C2B6C2CDE4F5FAF5FB8562
:0B008E000CFCD2B375BCEB75E6AC2295
:1002B700C2B6C2B3C2CD53B1B743B24853C9DF4385
:1002C700CA2075D90AE4F5E9F5F9F5F2F5FAF5EA80
:1002D70075DA42F5F3F5FBF5EB75DB42F5F4F5FC62
:0802E700F5EC75DC42D2DE22C9
:0A0370004391385392C7759D38225F
:0300AB000202EF5F
:1002EF00C0E0C0D053E6BFE50AC394055004050A29
:1002FF008003750A0012000E750B0AD0D0D0E032C1
:0D00990075E68C75E73C43C91053CAEF2291
:10019C0053E6BF750C1EE4F50A12000E7F05120320
:1001AC00317B2C7A01E4FDFCC3ED9BEC9A500C7F67
:1001BC00321203410DBD00010C80ED7C007D0FAFB0
:1001CC0003AE02120262EF2401FFE43EFEC3EB9F7A
:1001DC00FBEA9EFAC3EB9419EA940050037F0122C8
:1001EC00E50AC394055004050A8003E4F50A1200DD
:0301FC000E80B2C0
:10030F005389FB538E7FE58954FC4401F58943895A
:0B031F0008E4F58CF58AD28CD2A922EC
:03000B0002035895
:0C035800750F00750D03750EE8D2013220
:030003000201FFF8
:0F01FF00C0E0C0D075D000C004C005C006C00766
:10020E00C28CAF8CEFFEAD8A7C00E42DFFEC3EFE7F
:10021E00758C00758A00D28C050FE50FC3940540CE
:10022E0003750F05EEC313FEEF13FFC39420EE9478
:10023E00034014D3EF94D0EE9407500BE50FB405A2
:07024E00068E0D8F0ED20198
:0D025500D007D006D005D004D0D0D0E032C4
:1000AE001202B712037012009912030FC289D2A85E
:1000BE00D288750D03750EE8E4F509F508F50FF510
:1000CE000BD2AF7F01120331E50BD39400402E15F6
:1000DE000BE50B7028F5FAF5FBF5FCC2B6C2B3C200
:1000EE00CD53E6BF12032A12032A750D03750EE8CF
:1000FE00E4F509F50CC201C200F50FF50B30012F26
:10010E00C201AF0EAE0DC3EF944CEE9404401BEF44
:10011E0024B4FFEE34FBC313FEEF13FFD39400EEB3
:10012E00940140097E007FFF8003E4FEFF8F0920CB
:10013E000015E509C3941E400E12019C53E6BF4301
:10014E00E640D200E4F50B0508E508C3940A500317
:10015E000200D1E4F5082000030200D1E50C950958
:10016E005002050CE50CD395094002150CE50CC3A5
:10017E00941440030200D1E4F50CC200F5FAF5FB2D
:0E018E00F5FCC2B6C2B3C2CD53E6BF0200D12B
:0300000002036494
:0C036400787FE4F6D8FD7581200200AE21
:10026200BC000BBE0029EF8DF084FFADF022E4CC80
:10027200F875F008EF2FFFEE33FEEC33FCEE9DEC49
:10028200984005FCEE9DFE0FD5F0E9E4CEFD22ED8F
:10029200F8F5F0EE8420D21CFEADF075F008EF2FD9
:1002A200FFED33FD4007985006D5F0F222C398FDCA
:0502B2000FD5F0EA2267
:00000001FF
